:020000040800F2
:1000000000000220150200086502000865020008D1
:100010006502000865020008650200080000000093
:100020000000000000000000000000006502000861
:100030006502000800000000650200086502000873
:1000400065020008650200086502000865020008F4
:1000500065020008650200086502000865020008E4
:1000600065020008650200086502000865020008D4
:1000700065020008650200086502000865020008C4
:1000800065020008650200086502000865020008B4
:1000900065020008650200086502000865020008A4
:1000A0006502000865020008650200086502000894
:1000B0006502000865020008650200086502000884
:1000C0006502000865020008650200086502000874
:1000D0006502000865020008650200086502000864
:1000E0006502000865020008650200086502000854
:1000F0006502000865020008650200086502000844
:100100006502000865020008650200086502000833
:100110006502000865020008650200086502000823
:100120006502000865020008650200086502000813
:100130006502000865020008650200086502000803
:1001400065020008650200086502000865020008F3
:1001500065020008650200086502000865020008E3
:1001600065020008650200086502000865020008D3
:100170006502000865020008650200080000000032
:08018000650200086502000899
:100188000348044B834202D0034B03B1184770471E
:100198000000002000000020000000000548064B79
:1001A8001B1AD90F01EBA301491002D0034B03B16D
:1001B80018477047000000200000002000000000E1
:1001C80010B5064C237843B9FFF7DAFF044B13B197
:1001D8000448AFF300800123237010BD0000002005
:1001E800000000003C03000808B5054B1BB1054999
:1001F8000548AFF30080BDE80840FFF7CFBF00BF58
:1002080000000000040000203C030008DFF834D0A0
:1002180000F026F80C480D490D4A002302E0D45896
:10022800C4500433C4188C42F9D30A4A0A4C002338
:1002380001E013600432A242FBD300F057F800F04B
:1002480019F870470000022000000020000000207C
:1002580080030008000000201C000020FEE70000CA
:10026800034AD2F8883043F47003C2F888307047E4
:1002780000ED00E01849194B086B194A40F00100DD
:100288000863186820F030001860186840F02000F3
:100298001860186A40F4E06018620B6C4FF08B0C21
:1002A80043F400330B64C2F808C0D36843F0080372
:1002B800D360D36843F40053D3600A4848211368D5
:1002C8001B06FCD5516010F8011F0029F7D1064B19
:1002D80000BF013BFCD1F0E70038024000000240BB
:1002E8000044004054030008005A620270B50D4BE8
:1002F8000D4D5B1B9C100026A64209D100F01AF890
:100308000A4D0B4B5B1B9C100026A64205D170BD05
:1003180055F8043B98470136EEE755F8043B9847F3
:100328000136F2E77803000878030008780300082C
:100338007C030008F8B500BFF8BC08BC9E467047AF
:0C034800F8B500BFF8BC08BC9E4670472A
:1003540048656C6C6F2066726F6D2053544D333258
:10036400463430372042617265204D6574616C21DA
:040374000D0A00006E
:04037800F101000887
:04037C00C9010008AB
:0400000508000215D8
:00000001FF
