:020000040800F2
:1000000000000220150200086502000865020008D1
:100010006502000865020008650200080000000093
:100020000000000000000000000000006502000861
:100030006502000800000000650200086502000873
:1000400065020008650200086502000865020008F4
:1000500065020008650200086502000865020008E4
:1000600065020008650200086502000865020008D4
:1000700065020008650200086502000865020008C4
:1000800065020008650200086502000865020008B4
:1000900065020008650200086502000865020008A4
:1000A0006502000865020008650200086502000894
:1000B0006502000865020008650200086502000884
:1000C0006502000865020008650200086502000874
:1000D0006502000865020008650200086502000864
:1000E0006502000865020008650200086502000854
:1000F0006502000865020008650200086502000844
:100100006502000865020008650200086502000833
:100110006502000865020008650200086502000823
:100120006502000865020008650200086502000813
:100130006502000865020008650200086502000803
:1001400065020008650200086502000865020008F3
:1001500065020008650200086502000865020008E3
:1001600065020008650200086502000865020008D3
:100170006502000865020008650200080000000032
:08018000650200086502000899
:100188000348044B834202D0034B03B1184770471E
:100198000000002000000020000000000548064B79
:1001A8001B1AD90F01EBA301491002D0034B03B16D
:1001B80018477047000000200000002000000000E1
:1001C80010B5064C237843B9FFF7DAFF044B13B197
:1001D8000448AFF300800123237010BD0000002005
:1001E800000000007003000808B5054B1BB1054965
:1001F8000548AFF30080BDE80840FFF7CFBF00BF58
:10020800000000000400002070030008DFF834D06C
:1002180000F026F80C480D490D4A002302E0D45896
:10022800C4500433C4188C42F9D30A4A0A4C002338
:1002380001E013600432A242FBD300F071F800F031
:1002480019F870470000022000000020000000207C
:1002580090030008000000201C000020FEE70000BA
:10026800034AD2F8883043F47003C2F888307047E4
:1002780000ED00E02749284B086B284A40F00100B0
:100288000863186820F0F0001860186840F0A000B3
:100298001860186A40F4E0601862186A40F4E04098
:1002A80018620B6C4FF08B0C42F20C0043F40033D5
:1002B8000B64C2F808C0D06013681906FCD5532334
:1002C8001648536003681B06FCD574231349436022
:1002D8000B681806FCD56123104A4B601368190691
:1002E800FCD572230D4953600B681B06FCD574239B
:1002F8000A4A4B6013681806FCD50A21074B51605F
:100308001A689106FCD55968C9B21A681206FCD554
:100318005960F5E700380240000002400044004000
:1003280070B50D4B0D4D5B1B9C100026A64209D1E4
:1003380000F01AF80A4D0B4B5B1B9C100026A642D6
:1003480005D170BD55F8043B98470136EEE755F8DE
:10035800043B98470136F2E7880300088803000841
:10036800880300088C030008F8B500BFF8BC08BC77
:100378009E467047F8B500BFF8BC08BC9E4670475B
:04038800F101000877
:04038C00C90100089B
:0400000508000215D8
:00000001FF
