:020000040800F2
:1000000000000220150200086502000865020008D1
:100010006502000865020008650200080000000093
:100020000000000000000000000000006502000861
:100030006502000800000000650200086502000873
:1000400065020008650200086502000865020008F4
:1000500065020008650200086502000865020008E4
:1000600065020008650200086502000865020008D4
:1000700065020008650200086502000865020008C4
:1000800065020008650200086502000865020008B4
:1000900065020008650200086502000865020008A4
:1000A0006502000865020008650200086502000894
:1000B0007D0200086502000865020008650200086C
:1000C0006502000865020008650200086502000874
:1000D0006502000865020008650200086502000864
:1000E0006502000865020008650200086502000854
:1000F0006502000865020008650200086502000844
:100100006502000865020008650200086502000833
:100110006502000865020008650200086502000823
:100120006502000865020008650200086502000813
:100130006502000865020008650200086502000803
:1001400065020008650200086502000865020008F3
:1001500065020008650200086502000865020008E3
:1001600065020008650200086502000865020008D3
:100170006502000865020008650200080000000032
:08018000650200086502000899
:100188000348044B834202D0034B03B1184770471E
:100198000000002000000020000000000548064B79
:1001A8001B1AD90F01EBA301491002D0034B03B16D
:1001B80018477047000000200000002000000000E1
:1001C80010B5064C237843B9FFF7DAFF044B13B197
:1001D8000448AFF300800123237010BD0000002005
:1001E800000000003C03000808B5054B1BB1054999
:1001F8000548AFF30080BDE80840FFF7CFBF00BF58
:1002080000000000040000203C030008DFF834D0A0
:1002180000F026F80C480D490D4A002302E0D45896
:10022800C4500433C4188C42F9D30A4A0A4C002338
:1002380001E013600432A242FBD300F057F800F04B
:100248002BF870470000022000000020000000206A
:100258005C030008000000201C000020FEE70000EE
:10026800034AD2F8883043F47003C2F888307047E4
:1002780000ED00E04FF080431A69D20708D5054920
:100288004A6982F480524A611A6922F001021A61AD
:10029800704700BF000C0240114A1248116B41F030
:1002A80008011163016841F080710160116C4FF021
:1002B800804341F00101116443F67F6C40F2E7325C
:1002C800C3F828C0DA62DA6842F00102DA60064A46
:1002D8004FF0805111601A6842F001021A60FEE77F
:1002E80000380240000C024000E100E070B50D4B00
:1002F8000D4D5B1B9C100026A64209D100F01AF890
:100308000A4D0B4B5B1B9C100026A64205D170BD05
:1003180055F8043B98470136EEE755F8043B9847F3
:100328000136F2E754030008540300085403000898
:1003380058030008F8B500BFF8BC08BC9E467047D3
:0C034800F8B500BFF8BC08BC9E4670472A
:04035400F1010008AB
:04035800C9010008CF
:0400000508000215D8
:00000001FF
