:020000040800F2
:1000000000000220150200086502000865020008D1
:100010006502000865020008650200080000000093
:100020000000000000000000000000006502000861
:100030006502000800000000650200086502000873
:1000400065020008650200086502000865020008F4
:1000500065020008650200086502000865020008E4
:1000600065020008650200086502000865020008D4
:1000700065020008650200086502000865020008C4
:1000800065020008650200086502000865020008B4
:1000900065020008650200086502000865020008A4
:1000A0006502000865020008650200086502000894
:1000B0006502000865020008650200086502000884
:1000C0006502000865020008650200086502000874
:1000D0006502000865020008650200086502000864
:1000E0006502000865020008650200086502000854
:1000F0006502000865020008650200086502000844
:100100006502000865020008650200086502000833
:100110006502000865020008650200086502000823
:100120006502000865020008650200086502000813
:100130006502000865020008650200086502000803
:1001400065020008650200086502000865020008F3
:1001500065020008650200086502000865020008E3
:1001600065020008650200086502000865020008D3
:100170006502000865020008650200080000000032
:08018000650200086502000899
:100188000348044B834202D0034B03B1184770471E
:100198000000002000000020000000000548064B79
:1001A8001B1AD90F01EBA301491002D0034B03B16D
:1001B80018477047000000200000002000000000E1
:1001C80010B5064C237843B9FFF7DAFF044B13B197
:1001D8000448AFF300800123237010BD0000002005
:1001E800000000006803000808B5054B1BB105496D
:1001F8000548AFF30080BDE80840FFF7CFBF00BF58
:10020800000000000400002068030008DFF834D074
:1002180000F026F80C480D490D4A002302E0D45896
:10022800C4500433C4188C42F9D30A4A0A4C002338
:1002380001E013600432A242FBD300F06DF800F035
:100248003DF8704700000220000000200000002058
:1002580088030008000000201C000020FEE70000C2
:10026800034AD2F8883043F47003C2F888307047E4
:1002780000ED00E00F49104B0A6C10B442F0040284
:100288009F2440F2E7300A649C62D8629A695DF85C
:10029800044B42F060029A619A6942F008029A613E
:1002A8001A6A42F001021A621A6842F001021A60E0
:1002B800704700BF003802400008004013490A6B2D
:1002C80008B542F00802124B0A631A6822F040721D
:1002D8001A601A6842F000721A605A6A42F40032D0
:1002E8005A62FFF7C7FFDFF82CC00A21002240F24C
:1002F800E630CCF834200A44531E834288BF494272
:1003080049F6404300BF013BFCD1F2E70038024008
:10031800000C02400008004070B50D4B0D4D5B1BF2
:100328009C100026A64209D100F01AF80A4D0B4B82
:100338005B1B9C100026A64205D170BD55F8043BF6
:1003480098470136EEE755F8043B98470136F2E73F
:100358008003000880030008800300088403000865
:10036800F8B500BFF8BC08BC9E467047F8B500BF9A
:08037800F8BC08BC9E4670476A
:04038000F10100087F
:04038400C9010008A3
:0400000508000215D8
:00000001FF
