:020000040800F2
:1000000000000220150200086502000865020008D1
:100010006502000865020008650200080000000093
:100020000000000000000000000000006502000861
:100030006502000800000000650200086502000873
:1000400065020008650200086502000865020008F4
:1000500065020008650200087D02000865020008CC
:1000600065020008650200086502000865020008D4
:1000700065020008650200086502000865020008C4
:1000800065020008650200086502000865020008B4
:1000900065020008650200086502000865020008A4
:1000A0006502000865020008650200086502000894
:1000B0006502000865020008650200086502000884
:1000C0006502000865020008650200086502000874
:1000D0006502000865020008650200086502000864
:1000E0006502000865020008650200086502000854
:1000F0006502000865020008650200086502000844
:100100006502000865020008650200086502000833
:100110006502000865020008650200086502000823
:100120006502000865020008650200086502000813
:100130006502000865020008650200086502000803
:1001400065020008650200086502000865020008F3
:1001500065020008650200086502000865020008E3
:1001600065020008650200086502000865020008D3
:100170006502000865020008650200080000000032
:08018000650200086502000899
:100188000348044B834202D0034B03B1184770471E
:100198000000002000000020000000000548064B79
:1001A8001B1AD90F01EBA301491002D0034B03B16D
:1001B80018477047000000200000002000000000E1
:1001C80010B5064C237843B9FFF7DAFF044B13B197
:1001D8000448AFF300800123237010BD0000002005
:1001E800000000006403000808B5054B1BB1054971
:1001F8000548AFF30080BDE80840FFF7CFBF00BF58
:10020800000000000400002064030008DFF834D078
:1002180000F026F80C480D490D4A002302E0D45896
:10022800C4500433C4188C42F9D30A4A0A4C002338
:1002380001E013600432A242FBD300F06BF800F037
:100248004FF8704700000220000000200000002046
:1002580084030008000000201C000020FEE70000C6
:10026800034AD2F8883043F47003C2F888307047E4
:1002780000ED00E0064B5A69D20708D505494A69DE
:1002880082F480524A615A6942F001025A61704709
:10029800003C0140000C02400D480E49426C0E4BD8
:1002A80042F4804242648A6822F00F028A601A6827
:1002B80042F001021A609A6842F001029A60DA6814
:1002C80022F00102DA60054B40221A60704700BF35
:1002D8000038024000380140003C014000E100E0E5
:1002E80009480A490A4A08B5036B43F0090303633E
:1002F8000B6843F080730B60D36823F00303D3606B
:10030800FFF7CAFFFEE700BF00380240000C0240BA
:100318000000024070B50D4B0D4D5B1B9C10002674
:10032800A64209D100F01AF80A4D0B4B5B1B9C1032
:100338000026A64205D170BD55F8043B9847013602
:10034800EEE755F8043B98470136F2E77C030008CE
:100358007C0300087C03000880030008F8B500BF90
:10036800F8BC08BC9E467047F8B500BFF8BC08BC8E
:040378009E467047E6
:04037C00F101000883
:04038000C9010008A7
:0400000508000215D8
:00000001FF
