:020000040800F2
:1000000000000220150200086502000865020008D1
:100010006502000865020008650200080000000093
:100020000000000000000000000000006502000861
:100030006502000800000000650200086502000873
:1000400065020008650200086502000865020008F4
:1000500065020008650200086502000865020008E4
:1000600065020008650200086502000865020008D4
:1000700065020008650200086502000865020008C4
:1000800065020008650200086502000865020008B4
:1000900065020008650200086502000865020008A4
:1000A0006502000865020008650200086502000894
:1000B0006502000865020008650200086502000884
:1000C0006502000865020008650200086502000874
:1000D00065020008650200087D020008650200084C
:1000E0006502000865020008650200086502000854
:1000F0006502000865020008650200086502000844
:100100006502000865020008650200086502000833
:100110006502000865020008650200086502000823
:100120006502000865020008650200086502000813
:100130006502000865020008650200086502000803
:1001400065020008650200086502000865020008F3
:1001500065020008650200086502000865020008E3
:1001600065020008650200086502000865020008D3
:100170006502000865020008650200080000000032
:08018000650200086502000899
:100188000348044B834202D0034B03B1184770471E
:100198000000002000000020000000000548064B79
:1001A8001B1AD90F01EBA301491002D0034B03B16D
:1001B80018477047000000200000002000000000E1
:1001C80010B5064C237843B9FFF7DAFF044B13B197
:1001D8000448AFF300800123237010BD0000002005
:1001E800000000003804000808B5054B1BB105499C
:1001F8000548AFF30080BDE80840FFF7CFBF00BF58
:10020800000000000400002038040008DFF834D0A3
:1002180000F026F80C480D490D4A002302E0D45896
:10022800C4500433C4188C42F9D30A4A0A4C002338
:1002380001E013600432A242FBD300F0D5F800F0CD
:100248005DF8704700000220000000200000002038
:10025800580400080000002060000020FEE70000AD
:10026800034AD2F8883043F47003C2F888307047E4
:1002780000ED00E00C4B1A68920600D470470B4959
:100288000B4A58680B881288013303F03F0392B277
:100298009A42F3D00A8810B492B2064CC0B2A05465
:1002A8005DF8044B0B807047004400401E0000209E
:1002B8001C000020200000200D480E4B016B0E4A48
:1002C80041F009010163196821F0F001196019680A
:1002D80041F0A0011960196A41F4EE4119621368EE
:1002E80023F040731360136843F080731360704702
:1002F8000038024000000240000C024070B582B095
:10030800FFF7DAFF3049314A0B6C8B2043F4003396
:100318000B649060D36843F02003D3602C4B4021DA
:100328005960D36843F4005343F00C03D360136857
:100338001806FCD549232548536003681906FCD5DF
:100348005223224943600B681A06FCD551231F4AE1
:100358004B6013681B06FCD50A235360DFF880E066
:100368001C491D4D194ADFF87CC01C480024BEF802
:1003780000300E889B1B9E0610D1DCF8143083F4E5
:100388008053CCF814300194019B8342EFDC019B2D
:1003980001330193019B8342F9DDE8E7BEF8006071
:1003A8000B88B6B29BB29E420CD00B889BB2EE5C17
:1003B8000B88013303F03F030B8013681B06FCD541
:1003C8005660DAE7FF26F8E70038024000440040AC
:1003D80000E100E01C000020200000209F860100B2
:1003E8001E000020000C024070B50D4B0D4D5B1B2C
:1003F8009C100026A64209D100F01AF80A4D0B4BB2
:100408005B1B9C100026A64205D170BD55F8043B25
:1004180098470136EEE755F8043B98470136F2E76E
:100428005004000850040008500400085404000850
:10043800F8B500BFF8BC08BC9E467047F8B500BFC9
:08044800F8BC08BC9E46704799
:04045000F1010008AE
:04045400C9010008D2
:0400000508000215D8
:00000001FF
