:020000040800F2
:1000000000000220150200086502000865020008D1
:100010006502000865020008650200080000000093
:100020000000000000000000000000006502000861
:100030006502000800000000650200087D0200085B
:1000400065020008650200086502000865020008F4
:1000500065020008650200086502000865020008E4
:1000600065020008650200086502000865020008D4
:1000700065020008650200086502000865020008C4
:1000800065020008650200086502000865020008B4
:1000900065020008650200086502000865020008A4
:1000A0006502000865020008650200086502000894
:1000B0006502000865020008650200086502000884
:1000C0006502000865020008650200086502000874
:1000D0006502000865020008650200086502000864
:1000E0006502000865020008650200086502000854
:1000F0006502000865020008650200086502000844
:100100006502000865020008650200086502000833
:100110006502000865020008650200086502000823
:100120006502000865020008650200086502000813
:100130006502000865020008650200086502000803
:1001400065020008650200086502000865020008F3
:1001500065020008650200086502000865020008E3
:1001600065020008650200086502000865020008D3
:100170006502000865020008650200080000000032
:08018000650200086502000899
:100188000348044B834202D0034B03B1184770471E
:100198000000002000000020000000000548064B79
:1001A8001B1AD90F01EBA301491002D0034B03B16D
:1001B80018477047000000200000002000000000E1
:1001C80010B5064C237843B9FFF7DAFF044B13B197
:1001D8000448AFF300800123237010BD0000002005
:1001E800000000002403000808B5054B1BB10549B1
:1001F8000548AFF30080BDE80840FFF7CFBF00BF58
:10020800000000000400002024030008DFF834D0B8
:1002180000F026F80C480D490D4A002302E0D45896
:10022800C4500433C4188C42F9D30A4A0A4C002338
:1002380001E013600432A242FBD300F04BF800F057
:1002480021F8704700000220000000200000002074
:10025800440300080000002020000020FEE7000002
:10026800034AD2F8883043F47003C2F888307047E4
:1002780000ED00E0024A136801331360704700BFC5
:100288001C000020104911480A6B42F008020A635A
:1002980002684FF0E0234FF47A5142F08072026016
:1002A8004FF0000C59610A4AC3F818C007211961B8
:1002B800436983F480534361116813685B1AB3F58B
:1002C8007A7FFAD3F4E700BF00380240000C0240FE
:1002D8001C00002070B50D4B0D4D5B1B9C100026BB
:1002E800A64209D100F01AF80A4D0B4B5B1B9C1073
:1002F8000026A64205D170BD55F8043B9847013643
:10030800EEE755F8043B98470136F2E73C0300084E
:100318003C0300083C03000840030008F8B500BF90
:10032800F8BC08BC9E467047F8B500BFF8BC08BCCE
:040338009E46704726
:04033C00F1010008C3
:04034000C9010008E7
:0400000508000215D8
:00000001FF
